{
  "contractName": "EventContract",
  "abi": [
    {
      "constant": true,
      "inputs": [
        {
          "name": "",
          "type": "bytes32"
        }
      ],
      "name": "eventMap",
      "outputs": [
        {
          "name": "index",
          "type": "uint256"
        },
        {
          "name": "owner",
          "type": "address"
        },
        {
          "name": "lastUpdated",
          "type": "uint256"
        },
        {
          "name": "initialized",
          "type": "bool"
        },
        {
          "name": "name",
          "type": "string"
        },
        {
          "name": "location",
          "type": "bytes32"
        }
      ],
      "payable": false,
      "stateMutability": "view",
      "type": "function"
    },
    {
      "constant": true,
      "inputs": [
        {
          "name": "",
          "type": "uint256"
        }
      ],
      "name": "eventArray",
      "outputs": [
        {
          "name": "",
          "type": "bytes32"
        }
      ],
      "payable": false,
      "stateMutability": "view",
      "type": "function"
    },
    {
      "inputs": [],
      "payable": false,
      "stateMutability": "nonpayable",
      "type": "constructor"
    },
    {
      "anonymous": false,
      "inputs": [
        {
          "indexed": true,
          "name": "_id",
          "type": "bytes32"
        },
        {
          "indexed": false,
          "name": "name",
          "type": "string"
        },
        {
          "indexed": false,
          "name": "location",
          "type": "bytes32"
        }
      ],
      "name": "EventCreated",
      "type": "event"
    },
    {
      "anonymous": false,
      "inputs": [
        {
          "indexed": true,
          "name": "_id",
          "type": "bytes32"
        },
        {
          "indexed": false,
          "name": "name",
          "type": "string"
        },
        {
          "indexed": false,
          "name": "location",
          "type": "bytes32"
        }
      ],
      "name": "EventUpdated",
      "type": "event"
    },
    {
      "anonymous": false,
      "inputs": [
        {
          "indexed": true,
          "name": "_id",
          "type": "bytes32"
        },
        {
          "indexed": false,
          "name": "name",
          "type": "string"
        },
        {
          "indexed": false,
          "name": "location",
          "type": "bytes32"
        }
      ],
      "name": "EventDeleted",
      "type": "event"
    },
    {
      "constant": false,
      "inputs": [
        {
          "name": "id",
          "type": "bytes32"
        },
        {
          "name": "name",
          "type": "string"
        },
        {
          "name": "location",
          "type": "bytes32"
        }
      ],
      "name": "createEvent",
      "outputs": [
        {
          "name": "",
          "type": "bool"
        }
      ],
      "payable": false,
      "stateMutability": "nonpayable",
      "type": "function"
    },
    {
      "constant": true,
      "inputs": [
        {
          "name": "id",
          "type": "bytes32"
        }
      ],
      "name": "readEvent",
      "outputs": [
        {
          "name": "",
          "type": "address"
        },
        {
          "name": "",
          "type": "uint256"
        },
        {
          "name": "",
          "type": "string"
        },
        {
          "name": "",
          "type": "bytes32"
        }
      ],
      "payable": false,
      "stateMutability": "view",
      "type": "function"
    },
    {
      "constant": true,
      "inputs": [
        {
          "name": "index",
          "type": "uint256"
        }
      ],
      "name": "readEventByIndex",
      "outputs": [
        {
          "name": "",
          "type": "address"
        },
        {
          "name": "",
          "type": "uint256"
        },
        {
          "name": "",
          "type": "string"
        },
        {
          "name": "",
          "type": "bytes32"
        }
      ],
      "payable": false,
      "stateMutability": "view",
      "type": "function"
    },
    {
      "constant": false,
      "inputs": [
        {
          "name": "id",
          "type": "bytes32"
        },
        {
          "name": "name",
          "type": "string"
        },
        {
          "name": "location",
          "type": "bytes32"
        }
      ],
      "name": "updateEvent",
      "outputs": [
        {
          "name": "",
          "type": "bool"
        }
      ],
      "payable": false,
      "stateMutability": "nonpayable",
      "type": "function"
    },
    {
      "constant": false,
      "inputs": [
        {
          "name": "id",
          "type": "bytes32"
        }
      ],
      "name": "deleteEvent",
      "outputs": [
        {
          "name": "",
          "type": "bool"
        }
      ],
      "payable": false,
      "stateMutability": "nonpayable",
      "type": "function"
    },
    {
      "constant": true,
      "inputs": [],
      "name": "countEvent",
      "outputs": [
        {
          "name": "",
          "type": "uint256"
        }
      ],
      "payable": false,
      "stateMutability": "view",
      "type": "function"
    }
  ],
  "bytecode": "0x6060604052341561000f57600080fd5b336000806101000a81548173ffffffffffffffffffffffffffffffffffffffff021916908373ffffffffffffffffffffffffffffffffffffffff1602179055506112c78061005e6000396000f30060606040526004361061008e576000357c0100000000000000000000000000000000000000000000000000000000900463ffffffff1680631cc844bc146100935780634bb4dabf146100d25780635c3d3c97146101bb578063a9e112a7146102d3578063b9c7a3b4146103b8578063bcd7ae38146103f7578063d3c6d3b014610486578063f460cf86146104af575b600080fd5b341561009e57600080fd5b6100b860048080356000191690602001909190505061053e565b604051808215151515815260200191505060405180910390f35b34156100dd57600080fd5b6100f76004808035600019169060200190919050506108c2565b604051808573ffffffffffffffffffffffffffffffffffffffff1673ffffffffffffffffffffffffffffffffffffffff168152602001848152602001806020018360001916600019168152602001828103825284818151815260200191508051906020019080838360005b8381101561017d578082015181840152602081019050610162565b50505050905090810190601f1680156101aa5780820380516001836020036101000a031916815260200191505b509550505050505060405180910390f35b34156101c657600080fd5b6101e0600480803560001916906020019091905050610a15565b604051808781526020018673ffffffffffffffffffffffffffffffffffffffff1673ffffffffffffffffffffffffffffffffffffffff168152602001858152602001841515151581526020018060200183600019166000191681526020018281038252848181546001816001161561010002031660029004815260200191508054600181600116156101000203166002900480156102bf5780601f10610294576101008083540402835291602001916102bf565b820191906000526020600020905b8154815290600101906020018083116102a257829003601f168201915b505097505050505050505060405180910390f35b34156102de57600080fd5b6102f46004808035906020019091905050610a7d565b604051808573ffffffffffffffffffffffffffffffffffffffff1673ffffffffffffffffffffffffffffffffffffffff168152602001848152602001806020018360001916600019168152602001828103825284818151815260200191508051906020019080838360005b8381101561037a57808201518184015260208101905061035f565b50505050905090810190601f1680156103a75780820380516001836020036101000a031916815260200191505b509550505050505060405180910390f35b34156103c357600080fd5b6103d96004808035906020019091905050610c02565b60405180826000191660001916815260200191505060405180910390f35b341561040257600080fd5b61046c60048080356000191690602001909190803590602001908201803590602001908080601f0160208091040260200160405190810160405280939291908181526020018383808284378201915050505050509190803560001916906020019091905050610c26565b604051808215151515815260200191505060405180910390f35b341561049157600080fd5b610499610ea9565b6040518082815260200191505060405180910390f35b34156104ba57600080fd5b61052460048080356000191690602001909190803590602001908201803590602001908080601f0160208091040260200160405190810160405280939291908181526020018383808284378201915050505050509190803560001916906020019091905050610eb6565b604051808215151515815260200191505060405180910390f35b60008060008073ffffffffffffffffffffffffffffffffffffffff1660016000866000191660001916815260200190815260200160002060010160009054906101000a900473ffffffffffffffffffffffffffffffffffffffff1673ffffffffffffffffffffffffffffffffffffffff16141515156105bc57600080fd5b3373ffffffffffffffffffffffffffffffffffffffff1660016000866000191660001916815260200190815260200160002060010160009054906101000a900473ffffffffffffffffffffffffffffffffffffffff1673ffffffffffffffffffffffffffffffffffffffff16148061068057503373ffffffffffffffffffffffffffffffffffffffff166000809054906101000a900473ffffffffffffffffffffffffffffffffffffffff1673ffffffffffffffffffffffffffffffffffffffff16145b151561068b57600080fd5b60016000856000191660001916815260200190815260200160002060000154915060026001600280549050038154811015156106c357fe5b906000526020600020900154905081600160008360001916600019168152602001908152602001600020600001819055508060028381548110151561070457fe5b90600052602060002090018160001916905550600280548091906001900361072c919061111d565b5083600019167fe7e0c96731c706fa199f93d1bb3f1738e708bf0b2c7315562299bd795cd6489860016000876000191660001916815260200190815260200160002060040160016000886000191660001916815260200190815260200160002060050154604051808060200183600019166000191681526020018281038252848181546001816001161561010002031660029004815260200191508054600181600116156101000203166002900480156108275780601f106107fc57610100808354040283529160200191610827565b820191906000526020600020905b81548152906001019060200180831161080a57829003601f168201915b5050935050505060405180910390a26001600085600019166000191681526020019081526020016000206000808201600090556001820160006101000a81549073ffffffffffffffffffffffffffffffffffffffff021916905560028201600090556003820160006101000a81549060ff02191690556004820160006108ad9190611149565b60058201600090555050600192505050919050565b6000806108cd611191565b600060016000866000191660001916815260200190815260200160002060010160009054906101000a900473ffffffffffffffffffffffffffffffffffffffff166001600087600019166000191681526020019081526020016000206002015460016000886000191660001916815260200190815260200160002060040160016000896000191660001916815260200190815260200160002060050154818054600181600116156101000203166002900480601f0160208091040260200160405190810160405280929190818152602001828054600181600116156101000203166002900480156109ff5780601f106109d4576101008083540402835291602001916109ff565b820191906000526020600020905b8154815290600101906020018083116109e257829003601f168201915b5050505050915093509350935093509193509193565b60016020528060005260406000206000915090508060000154908060010160009054906101000a900473ffffffffffffffffffffffffffffffffffffffff16908060020154908060030160009054906101000a900460ff169080600401908060050154905086565b600080610a88611191565b60008060028054905086101515610a9e57600080fd5b600286815481101515610aad57fe5b906000526020600020900154905060016000826000191660001916815260200190815260200160002060010160009054906101000a900473ffffffffffffffffffffffffffffffffffffffff166001600083600019166000191681526020019081526020016000206002015460016000846000191660001916815260200190815260200160002060040160016000856000191660001916815260200190815260200160002060050154818054600181600116156101000203166002900480601f016020809104026020016040519081016040528092919081815260200182805460018160011615610100020316600290048015610beb5780601f10610bc057610100808354040283529160200191610beb565b820191906000526020600020905b815481529060010190602001808311610bce57829003601f168201915b505050505091509450945094509450509193509193565b600281815481101515610c1157fe5b90600052602060002090016000915090505481565b60008073ffffffffffffffffffffffffffffffffffffffff1660016000866000191660001916815260200190815260200160002060010160009054906101000a900473ffffffffffffffffffffffffffffffffffffffff1673ffffffffffffffffffffffffffffffffffffffff1614151515610ca157600080fd5b3373ffffffffffffffffffffffffffffffffffffffff1660016000866000191660001916815260200190815260200160002060010160009054906101000a900473ffffffffffffffffffffffffffffffffffffffff1673ffffffffffffffffffffffffffffffffffffffff161480610d6557503373ffffffffffffffffffffffffffffffffffffffff166000809054906101000a900473ffffffffffffffffffffffffffffffffffffffff1673ffffffffffffffffffffffffffffffffffffffff16145b1515610d7057600080fd5b4260016000866000191660001916815260200190815260200160002060020181905550826001600086600019166000191681526020019081526020016000206004019080519060200190610dc59291906111a5565b5081600160008660001916600019168152602001908152602001600020600501816000191690555083600019167fc151f141e39a611a031cc4075da14886adadaf086d20d6e66b5c043d094671c1848460405180806020018360001916600019168152602001828103825284818151815260200191508051906020019080838360005b83811015610e63578082015181840152602081019050610e48565b50505050905090810190601f168015610e905780820380516001836020036101000a031916815260200191505b50935050505060405180910390a2600190509392505050565b6000600280549050905090565b60008073ffffffffffffffffffffffffffffffffffffffff1660016000866000191660001916815260200190815260200160002060010160009054906101000a900473ffffffffffffffffffffffffffffffffffffffff1673ffffffffffffffffffffffffffffffffffffffff16141515610f3057600080fd5b6002805490506001600086600019166000191681526020019081526020016000206000018190555060028054806001018281610f6c9190611225565b9160005260206000209001600086909190915090600019169055503360016000866000191660001916815260200190815260200160002060010160006101000a81548173ffffffffffffffffffffffffffffffffffffffff021916908373ffffffffffffffffffffffffffffffffffffffff16021790555042600160008660001916600019168152602001908152602001600020600201819055508260016000866000191660001916815260200190815260200160002060040190805190602001906110399291906111a5565b5081600160008660001916600019168152602001908152602001600020600501816000191690555083600019167fc2418efafb31275de13f7e36407bbc1cab7b30b5c2bfb1fde1cebf5414b29d06848460405180806020018360001916600019168152602001828103825284818151815260200191508051906020019080838360005b838110156110d75780820151818401526020810190506110bc565b50505050905090810190601f1680156111045780820380516001836020036101000a031916815260200191505b50935050505060405180910390a2600190509392505050565b815481835581811511611144578183600052602060002091820191016111439190611251565b5b505050565b50805460018160011615610100020316600290046000825580601f1061116f575061118e565b601f01602090049060005260206000209081019061118d9190611276565b5b50565b602060405190810160405280600081525090565b828054600181600116156101000203166002900490600052602060002090601f016020900481019282601f106111e657805160ff1916838001178555611214565b82800160010185558215611214579182015b828111156112135782518255916020019190600101906111f8565b5b5090506112219190611276565b5090565b81548183558181151161124c5781836000526020600020918201910161124b9190611251565b5b505050565b61127391905b8082111561126f576000816000905550600101611257565b5090565b90565b61129891905b8082111561129457600081600090555060010161127c565b5090565b905600a165627a7a72305820c3e4ed87004b0d746d5e613ff5039bbb47ddf8997c546d758aca53aac96069990029",
  "source": "pragma solidity ^0.4.4;\r\n\r\n\r\ncontract EventContract {\r\n\r\n  address   contractOwner;\r\n\r\n  struct Event {\r\n    //internal fields\r\n    uint      index;\r\n    address   owner;\r\n    uint      lastUpdated;\r\n    bool initialized;\r\n    //generated fields\r\n    string name; \nbytes32 location; \n\r\n\r\n\r\n  }\r\n\r\n  mapping(bytes32 => Event) public eventMap;\r\n  bytes32[] public eventArray;\r\n\r\n  function EventContract() public {\r\n    contractOwner = msg.sender;\r\n  }\r\n\r\n  // Creates Event\r\n  function createEvent(bytes32 id,\r\n        //generated fields\r\n        string name, bytes32 location)\r\n        public returns (bool) {\r\n\r\n    //event already exists\r\n     require (eventMap[id].owner == address(0));\r\n\r\n    //create new event\r\n    //internal fields\r\n    eventMap[id].index = eventArray.length;\r\n    eventArray.push(id);\r\n    eventMap[id].owner = msg.sender;\r\n    eventMap[id].lastUpdated = now;\r\n    //generated fields\r\n    eventMap[id].name=name;\n eventMap[id].location=location;\r\n    EventCreated(id,\r\n        //generated fields - only param 1???\r\n        name, location);\r\n    return true;\r\n  }\r\n\r\n  // Returns an Event by id\r\n  function  readEvent(bytes32 id) constant public returns (address,uint,\r\n      //generated fields\r\n      string, bytes32) {\r\n    return (eventMap[id].owner, eventMap[id].lastUpdated,\r\n      //generated fields\r\n            eventMap[id].name, eventMap[id].location);\r\n  }\r\n\r\n  // Returns an Event by index\r\n  function  readEventByIndex(uint index) constant public returns (address,uint,\r\n      //generated fields\r\n        string, bytes32) {\r\n    require(index < eventArray.length);\r\n    bytes32 id = eventArray[index];\r\n    return (eventMap[id].owner, eventMap[id].lastUpdated,\r\n      //generated fields\r\n            eventMap[id].name, eventMap[id].location);\r\n  }\r\n // Updates Event\r\n  function updateEvent(bytes32 id,\r\n        //generated fields\r\n        string name, bytes32 location)\r\n        public  returns (bool) {\r\n    //event should exist\r\n    require (eventMap[id].owner != address(0));\r\n    require (eventMap[id].owner == msg.sender || contractOwner == msg.sender); //only event owner or contract owner can update\r\n\r\n    eventMap[id].lastUpdated = now;\r\n    //generated fields\r\n    eventMap[id].name=name;\n eventMap[id].location=location;\r\n    EventUpdated(id,\r\n        //generated fields - only param 1???\r\n        name, location);\r\n    return true;\r\n  }\r\n\r\n  // Deletes Event\r\n  function deleteEvent  (bytes32 id) public  returns (bool) {\r\n    //event should  exist\r\n    require (eventMap[id].owner != address(0));\r\n    require (eventMap[id].owner == msg.sender || contractOwner == msg.sender); //only event owner or contract owner can update\r\n\r\n    var i = eventMap[id].index;\r\n    var lastEvent = eventArray[eventArray.length-1];\r\n    eventMap[lastEvent].index = i;\r\n    eventArray[i] = lastEvent;\r\n    eventArray.length--;\r\n\r\n\r\n    EventDeleted(id,\r\n        //generated fields - only param 1???\r\n        eventMap[id].name, eventMap[id].location );\r\n    delete(eventMap[id]);\r\n    return true;\r\n  }\r\n\r\n  // Returns eventCount\r\n  function  countEvent() constant public returns (uint) {\r\n    return eventArray.length;\r\n  }\r\n\r\n\r\n  event EventCreated(bytes32 indexed _id,\r\n        string name, bytes32 location);\r\n  event EventUpdated(bytes32 indexed _id,\r\n        string name, bytes32 location);\r\n  event EventDeleted(bytes32 indexed _id,\r\n        string name, bytes32 location);\r\n\r\n}\r\n",
  "sourcePath": "C:\\ForteBackup\\Blockchain\\Development\\udemy\\acloudfan\\contracts\\app-generator-vue\\contracts\\EventContract.sol",
  "compiler": {
    "name": "solc",
    "version": "0.4.19+commit.c4cbbb05.Emscripten.clang"
  },
  "schemaVersion": "2.0.0",
  "updatedAt": "2018-04-21T19:31:31.090Z"
}