{
  "contractName": "EventContract",
  "abi": [
    {
      "inputs": [],
      "payable": false,
      "stateMutability": "nonpayable",
      "type": "constructor"
    },
    {
      "anonymous": false,
      "inputs": [
        {
          "indexed": true,
          "name": "_address",
          "type": "address"
        },
        {
          "indexed": false,
          "name": "_item",
          "type": "bytes32"
        }
      ],
      "name": "ItemCreated",
      "type": "event"
    },
    {
      "anonymous": false,
      "inputs": [
        {
          "indexed": true,
          "name": "_address",
          "type": "address"
        },
        {
          "indexed": false,
          "name": "_id",
          "type": "uint256"
        }
      ],
      "name": "ItemUpdated",
      "type": "event"
    },
    {
      "anonymous": false,
      "inputs": [
        {
          "indexed": true,
          "name": "_address",
          "type": "address"
        },
        {
          "indexed": false,
          "name": "_id",
          "type": "uint256"
        }
      ],
      "name": "ItemDeleted",
      "type": "event"
    },
    {
      "constant": false,
      "inputs": [
        {
          "name": "id",
          "type": "bytes32"
        },
        {
          "name": "name",
          "type": "string"
        }
      ],
      "name": "createEvent",
      "outputs": [
        {
          "name": "",
          "type": "bool"
        }
      ],
      "payable": false,
      "stateMutability": "nonpayable",
      "type": "function"
    },
    {
      "constant": true,
      "inputs": [
        {
          "name": "id",
          "type": "bytes32"
        }
      ],
      "name": "readEvent",
      "outputs": [
        {
          "name": "",
          "type": "address"
        },
        {
          "name": "",
          "type": "uint256"
        },
        {
          "name": "",
          "type": "string"
        }
      ],
      "payable": false,
      "stateMutability": "view",
      "type": "function"
    },
    {
      "constant": true,
      "inputs": [
        {
          "name": "index",
          "type": "uint256"
        }
      ],
      "name": "readEventByIndex",
      "outputs": [
        {
          "name": "",
          "type": "address"
        },
        {
          "name": "",
          "type": "uint256"
        },
        {
          "name": "",
          "type": "string"
        }
      ],
      "payable": false,
      "stateMutability": "view",
      "type": "function"
    },
    {
      "constant": false,
      "inputs": [
        {
          "name": "id",
          "type": "bytes32"
        },
        {
          "name": "name",
          "type": "string"
        }
      ],
      "name": "updateEvent",
      "outputs": [
        {
          "name": "",
          "type": "bool"
        }
      ],
      "payable": false,
      "stateMutability": "nonpayable",
      "type": "function"
    },
    {
      "constant": false,
      "inputs": [
        {
          "name": "id",
          "type": "bytes32"
        }
      ],
      "name": "deleteEvent",
      "outputs": [
        {
          "name": "",
          "type": "bool"
        }
      ],
      "payable": false,
      "stateMutability": "nonpayable",
      "type": "function"
    },
    {
      "constant": true,
      "inputs": [],
      "name": "countEvent",
      "outputs": [
        {
          "name": "",
          "type": "uint256"
        }
      ],
      "payable": false,
      "stateMutability": "view",
      "type": "function"
    }
  ],
  "bytecode": "0x6060604052341561000f57600080fd5b336000806101000a81548173ffffffffffffffffffffffffffffffffffffffff021916908373ffffffffffffffffffffffffffffffffffffffff160217905550610d8e8061005e6000396000f300606060405260043610610078576000357c0100000000000000000000000000000000000000000000000000000000900463ffffffff1680631cc844bc1461007d5780634bb4dabf146100bc578063a9e112a714610196578063bc9a154b1461026c578063d3c6d3b0146102ee578063f2e8327a14610317575b600080fd5b341561008857600080fd5b6100a2600480803560001916906020019091905050610399565b604051808215151515815260200191505060405180910390f35b34156100c757600080fd5b6100e160048080356000191690602001909190505061060c565b604051808473ffffffffffffffffffffffffffffffffffffffff1673ffffffffffffffffffffffffffffffffffffffff16815260200183815260200180602001828103825283818151815260200191508051906020019080838360005b8381101561015957808201518184015260208101905061013e565b50505050905090810190601f1680156101865780820380516001836020036101000a031916815260200191505b5094505050505060405180910390f35b34156101a157600080fd5b6101b7600480803590602001909190505061073c565b604051808473ffffffffffffffffffffffffffffffffffffffff1673ffffffffffffffffffffffffffffffffffffffff16815260200183815260200180602001828103825283818151815260200191508051906020019080838360005b8381101561022f578082015181840152602081019050610214565b50505050905090810190601f16801561025c5780820380516001836020036101000a031916815260200191505b5094505050505060405180910390f35b341561027757600080fd5b6102d460048080356000191690602001909190803590602001908201803590602001908080601f0160208091040260200160405190810160405280939291908181526020018383808284378201915050505050509190505061089f565b604051808215151515815260200191505060405180910390f35b34156102f957600080fd5b610301610a49565b6040518082815260200191505060405180910390f35b341561032257600080fd5b61037f60048080356000191690602001909190803590602001908201803590602001908080601f01602080910402602001604051908101604052809392919081815260200183838082843782019150505050505091905050610a56565b604051808215151515815260200191505060405180910390f35b60008060008073ffffffffffffffffffffffffffffffffffffffff1660016000866000191660001916815260200190815260200160002060010160009054906101000a900473ffffffffffffffffffffffffffffffffffffffff1673ffffffffffffffffffffffffffffffffffffffff161415151561041757600080fd5b3373ffffffffffffffffffffffffffffffffffffffff1660016000866000191660001916815260200190815260200160002060010160009054906101000a900473ffffffffffffffffffffffffffffffffffffffff1673ffffffffffffffffffffffffffffffffffffffff1614806104db57503373ffffffffffffffffffffffffffffffffffffffff166000809054906101000a900473ffffffffffffffffffffffffffffffffffffffff1673ffffffffffffffffffffffffffffffffffffffff16145b15156104e657600080fd5b600160008560001916600019168152602001908152602001600020600001549150600260016002805490500381548110151561051e57fe5b906000526020600020900154905081600160008360001916600019168152602001908152602001600020600001819055508060028381548110151561055f57fe5b9060005260206000209001816000191690555060028054809190600190036105879190610be4565b506001600085600019166000191681526020019081526020016000206000808201600090556001820160006101000a81549073ffffffffffffffffffffffffffffffffffffffff021916905560028201600090556003820160006101000a81549060ff02191690556004820160006105ff9190610c10565b5050600192505050919050565b600080610617610c58565b60016000856000191660001916815260200190815260200160002060010160009054906101000a900473ffffffffffffffffffffffffffffffffffffffff1660016000866000191660001916815260200190815260200160002060020154600160008760001916600019168152602001908152602001600020600401808054600181600116156101000203166002900480601f0160208091040260200160405190810160405280929190818152602001828054600181600116156101000203166002900480156107285780601f106106fd57610100808354040283529160200191610728565b820191906000526020600020905b81548152906001019060200180831161070b57829003601f168201915b505050505090509250925092509193909250565b600080610747610c58565b60006002805490508510151561075c57600080fd5b60028581548110151561076b57fe5b906000526020600020900154905060016000826000191660001916815260200190815260200160002060010160009054906101000a900473ffffffffffffffffffffffffffffffffffffffff1660016000836000191660001916815260200190815260200160002060020154600160008460001916600019168152602001908152602001600020600401808054600181600116156101000203166002900480601f01602080910402602001604051908101604052809291908181526020018280546001816001161561010002031660029004801561088a5780601f1061085f5761010080835404028352916020019161088a565b820191906000526020600020905b81548152906001019060200180831161086d57829003601f168201915b50505050509050935093509350509193909250565b60008073ffffffffffffffffffffffffffffffffffffffff1660016000856000191660001916815260200190815260200160002060010160009054906101000a900473ffffffffffffffffffffffffffffffffffffffff1673ffffffffffffffffffffffffffffffffffffffff161415151561091a57600080fd5b3373ffffffffffffffffffffffffffffffffffffffff1660016000856000191660001916815260200190815260200160002060010160009054906101000a900473ffffffffffffffffffffffffffffffffffffffff1673ffffffffffffffffffffffffffffffffffffffff1614806109de57503373ffffffffffffffffffffffffffffffffffffffff166000809054906101000a900473ffffffffffffffffffffffffffffffffffffffff1673ffffffffffffffffffffffffffffffffffffffff16145b15156109e957600080fd5b4260016000856000191660001916815260200190815260200160002060020181905550816001600085600019166000191681526020019081526020016000206004019080519060200190610a3e929190610c6c565b506001905092915050565b6000600280549050905090565b60008073ffffffffffffffffffffffffffffffffffffffff1660016000856000191660001916815260200190815260200160002060010160009054906101000a900473ffffffffffffffffffffffffffffffffffffffff1673ffffffffffffffffffffffffffffffffffffffff16141515610ad057600080fd5b6002805490506001600085600019166000191681526020019081526020016000206000018190555060028054806001018281610b0c9190610cec565b9160005260206000209001600085909190915090600019169055503360016000856000191660001916815260200190815260200160002060010160006101000a81548173ffffffffffffffffffffffffffffffffffffffff021916908373ffffffffffffffffffffffffffffffffffffffff1602179055504260016000856000191660001916815260200190815260200160002060020181905550816001600085600019166000191681526020019081526020016000206004019080519060200190610bd9929190610c6c565b506001905092915050565b815481835581811511610c0b57818360005260206000209182019101610c0a9190610d18565b5b505050565b50805460018160011615610100020316600290046000825580601f10610c365750610c55565b601f016020900490600052602060002090810190610c549190610d3d565b5b50565b602060405190810160405280600081525090565b828054600181600116156101000203166002900490600052602060002090601f016020900481019282601f10610cad57805160ff1916838001178555610cdb565b82800160010185558215610cdb579182015b82811115610cda578251825591602001919060010190610cbf565b5b509050610ce89190610d3d565b5090565b815481835581811511610d1357818360005260206000209182019101610d129190610d18565b5b505050565b610d3a91905b80821115610d36576000816000905550600101610d1e565b5090565b90565b610d5f91905b80821115610d5b576000816000905550600101610d43565b5090565b905600a165627a7a72305820f149d14d286926c6ee5257415ba978e5cb29fc4fa45faf409125aaaa65d367a90029",
  "source": "pragma solidity ^0.4.4;\n\n\ncontract EventContract {\n\n  address   contractOwner;\n\n  struct Event {\n    //internal fields\n    uint      index;\n    address   owner;\n    uint      lastUpdated;\n    bool initialized;\n    //generated fields  \n    string   name;\n  }\n\n  mapping(bytes32 => Event)  eventMap;\n  bytes32[]   eventArray;\n\n  function EventContract() public {\n    contractOwner = msg.sender;\n  }\n\n  // Creates Event\n  function createEvent(bytes32 id, \n        //generated fields\n        string name) \n        public returns (bool) {\n    \n    //event already exists\n     require (eventMap[id].owner == address(0));\n  \n    //create new event\n    //internal fields\n    eventMap[id].index = eventArray.length;\n    eventArray.push(id);\n    eventMap[id].owner = msg.sender;\n    eventMap[id].lastUpdated = now;\n    //generated fields\n    eventMap[id].name = name; \n    return true;\n  }\n\n  // Returns an Event by name\n  function  readEvent(bytes32 id) constant public returns (address,uint,\n      //generated fields\n      string) {\n    return (eventMap[id].owner, eventMap[id].lastUpdated, \n      //generated fields\n            eventMap[id].name);\n  }\n\n  // Returns an Event by name\n  function  readEventByIndex(uint index) constant public returns (address,uint,\n      //generated fields\n      string) {\n    require(index < eventArray.length);\n    bytes32 id = eventArray[index];\n    return (eventMap[id].owner, eventMap[id].lastUpdated, \n      //generated fields\n            eventMap[id].name);\n  }\n // Updates Event \n  function updateEvent(bytes32 id, \n        //generated fields\n        string name) \n        public  returns (bool) {\n    //event should exist\n    require (eventMap[id].owner != address(0));\n    require (eventMap[id].owner == msg.sender || contractOwner == msg.sender); //only event owner or contract owner can update   \n\n    eventMap[id].lastUpdated = now;\n    //generated fields\n    eventMap[id].name = name;\n    return true;\n  }\n  \n  // Deletes Event\n  function deleteEvent  (bytes32 id) public  returns (bool) {\n    // if(bytes(eventMap[id].name).length != 0) return false; //TODO  get rid of names as generated field\n    //event should  exist\n    require (eventMap[id].owner != address(0));\n    require (eventMap[id].owner == msg.sender || contractOwner == msg.sender); //only event owner or contract owner can update   \n\n    var i = eventMap[id].index;\n    var lastEvent = eventArray[eventArray.length-1];\n    eventMap[lastEvent].index = i;\n    eventArray[i] = lastEvent;\n    eventArray.length--;\n   \n    delete(eventMap[id]);\n    return true;\n  }\n\n  // Returns eventCount\n  function  countEvent() constant public returns (uint) {\n    return eventArray.length;\n  }\n\n\n  event ItemCreated(address indexed _address, bytes32 _item);\n  event ItemUpdated(address indexed _address, uint _id);\n  event ItemDeleted(address indexed _address, uint _id);\n\n}",
  "sourcePath": "C:\\ForteBackup\\Blockchain\\Development\\udemy\\acloudfan\\contracts\\app-generator-vue\\contracts\\EventContract.sol",
  "compiler": {
    "name": "solc",
    "version": "0.4.19+commit.c4cbbb05.Emscripten.clang"
  },
  "schemaVersion": "2.0.0",
  "updatedAt": "2018-04-21T10:55:35.659Z"
}