{
  "contractName": "EventParticipant",
  "abi": [
    {
      "constant": true,
      "inputs": [
        {
          "name": "",
          "type": "address"
        },
        {
          "name": "",
          "type": "uint256"
        }
      ],
      "name": "items",
      "outputs": [
        {
          "name": "",
          "type": "bytes32"
        }
      ],
      "payable": false,
      "stateMutability": "view",
      "type": "function"
    },
    {
      "inputs": [],
      "payable": false,
      "stateMutability": "nonpayable",
      "type": "constructor"
    },
    {
      "anonymous": false,
      "inputs": [
        {
          "indexed": true,
          "name": "_address",
          "type": "address"
        },
        {
          "indexed": false,
          "name": "_item",
          "type": "bytes32"
        }
      ],
      "name": "ItemCreated",
      "type": "event"
    },
    {
      "anonymous": false,
      "inputs": [
        {
          "indexed": true,
          "name": "_address",
          "type": "address"
        },
        {
          "indexed": false,
          "name": "_id",
          "type": "uint256"
        }
      ],
      "name": "ItemUpdated",
      "type": "event"
    },
    {
      "anonymous": false,
      "inputs": [
        {
          "indexed": true,
          "name": "_address",
          "type": "address"
        },
        {
          "indexed": false,
          "name": "_id",
          "type": "uint256"
        }
      ],
      "name": "ItemDestroyed",
      "type": "event"
    },
    {
      "constant": false,
      "inputs": [
        {
          "name": "id",
          "type": "bytes32"
        },
        {
          "name": "name",
          "type": "string"
        }
      ],
      "name": "createEvent",
      "outputs": [
        {
          "name": "",
          "type": "bool"
        }
      ],
      "payable": false,
      "stateMutability": "nonpayable",
      "type": "function"
    },
    {
      "constant": true,
      "inputs": [
        {
          "name": "id",
          "type": "bytes32"
        }
      ],
      "name": "readEvent",
      "outputs": [
        {
          "name": "",
          "type": "address"
        },
        {
          "name": "",
          "type": "uint256"
        },
        {
          "name": "",
          "type": "string"
        }
      ],
      "payable": false,
      "stateMutability": "view",
      "type": "function"
    },
    {
      "constant": true,
      "inputs": [
        {
          "name": "index",
          "type": "uint256"
        }
      ],
      "name": "readEventByIndex",
      "outputs": [
        {
          "name": "",
          "type": "address"
        },
        {
          "name": "",
          "type": "uint256"
        },
        {
          "name": "",
          "type": "string"
        }
      ],
      "payable": false,
      "stateMutability": "view",
      "type": "function"
    },
    {
      "constant": false,
      "inputs": [
        {
          "name": "id",
          "type": "bytes32"
        },
        {
          "name": "name",
          "type": "string"
        }
      ],
      "name": "updateEvent",
      "outputs": [
        {
          "name": "",
          "type": "bool"
        }
      ],
      "payable": false,
      "stateMutability": "nonpayable",
      "type": "function"
    },
    {
      "constant": false,
      "inputs": [
        {
          "name": "id",
          "type": "bytes32"
        }
      ],
      "name": "deleteEvent",
      "outputs": [
        {
          "name": "",
          "type": "bool"
        }
      ],
      "payable": false,
      "stateMutability": "nonpayable",
      "type": "function"
    },
    {
      "constant": true,
      "inputs": [],
      "name": "countEvent",
      "outputs": [
        {
          "name": "",
          "type": "uint256"
        }
      ],
      "payable": false,
      "stateMutability": "view",
      "type": "function"
    }
  ],
  "bytecode": "0x608060405234801561001057600080fd5b50336000806101000a81548173ffffffffffffffffffffffffffffffffffffffff021916908373ffffffffffffffffffffffffffffffffffffffff160217905550610c44806100606000396000f300608060405260043610610083576000357c0100000000000000000000000000000000000000000000000000000000900463ffffffff1680631cc844bc146100885780634bb4dabf146100d15780635c80a435146101b5578063a9e112a71461021e578063bc9a154b146102fe578063d3c6d3b01461038d578063f2e8327a146103b8575b600080fd5b34801561009457600080fd5b506100b76004803603810190808035600019169060200190929190505050610447565b604051808215151515815260200191505060405180910390f35b3480156100dd57600080fd5b5061010060048036038101908080356000191690602001909291905050506105d9565b604051808473ffffffffffffffffffffffffffffffffffffffff1673ffffffffffffffffffffffffffffffffffffffff16815260200183815260200180602001828103825283818151815260200191508051906020019080838360005b8381101561017857808201518184015260208101905061015d565b50505050905090810190601f1680156101a55780820380516001836020036101000a031916815260200191505b5094505050505060405180910390f35b3480156101c157600080fd5b50610200600480360381019080803573ffffffffffffffffffffffffffffffffffffffff16906020019092919080359060200190929190505050610703565b60405180826000191660001916815260200191505060405180910390f35b34801561022a57600080fd5b5061024960048036038101908080359060200190929190505050610733565b604051808473ffffffffffffffffffffffffffffffffffffffff1673ffffffffffffffffffffffffffffffffffffffff16815260200183815260200180602001828103825283818151815260200191508051906020019080838360005b838110156102c15780820151818401526020810190506102a6565b50505050905090810190601f1680156102ee5780820380516001836020036101000a031916815260200191505b5094505050505060405180910390f35b34801561030a57600080fd5b506103736004803603810190808035600019169060200190929190803590602001908201803590602001908080601f0160208091040260200160405190810160405280939291908181526020018383808284378201915050505050509192919290505050610890565b604051808215151515815260200191505060405180910390f35b34801561039957600080fd5b506103a261096f565b6040518082815260200191505060405180910390f35b3480156103c457600080fd5b5061042d6004803603810190808035600019169060200190929190803590602001908201803590602001908080601f016020809104026020016040519081016040528093929190818152602001838380828437820191505050505050919291929050505061097c565b604051808215151515815260200191505060405180910390f35b60008060003373ffffffffffffffffffffffffffffffffffffffff1660016000866000191660001916815260200190815260200160002060010160009054906101000a900473ffffffffffffffffffffffffffffffffffffffff1673ffffffffffffffffffffffffffffffffffffffff161415156104c857600092506105d2565b600160008560001916600019168152602001908152602001600020600001549150600260016002805490500381548110151561050057fe5b9060005260206000200154905081600160008360001916600019168152602001908152602001600020600001819055508060028381548110151561054057fe5b90600052602060002001816000191690555060028054809190600190036105679190610ada565b506001600085600019166000191681526020019081526020016000206000808201600090556001820160006101000a81549073ffffffffffffffffffffffffffffffffffffffff021916905560028201600090556003820160006105cb9190610b06565b5050600192505b5050919050565b600080606060016000856000191660001916815260200190815260200160002060010160009054906101000a900473ffffffffffffffffffffffffffffffffffffffff1660016000866000191660001916815260200190815260200160002060020154600160008760001916600019168152602001908152602001600020600301808054600181600116156101000203166002900480601f0160208091040260200160405190810160405280929190818152602001828054600181600116156101000203166002900480156106ef5780601f106106c4576101008083540402835291602001916106ef565b820191906000526020600020905b8154815290600101906020018083116106d257829003601f168201915b505050505090509250925092509193909250565b60036020528160005260406000208181548110151561071e57fe5b90600052602060002001600091509150505481565b600080606060006002805490508510151561074d57610888565b60028581548110151561075c57fe5b9060005260206000200154905060016000826000191660001916815260200190815260200160002060010160009054906101000a900473ffffffffffffffffffffffffffffffffffffffff1660016000836000191660001916815260200190815260200160002060020154600160008460001916600019168152602001908152602001600020600301808054600181600116156101000203166002900480601f01602080910402602001604051908101604052809291908181526020018280546001816001161561010002031660029004801561087a5780601f1061084f5761010080835404028352916020019161087a565b820191906000526020600020905b81548152906001019060200180831161085d57829003601f168201915b505050505090509350935093505b509193909250565b60003373ffffffffffffffffffffffffffffffffffffffff1660016000856000191660001916815260200190815260200160002060010160009054906101000a900473ffffffffffffffffffffffffffffffffffffffff1673ffffffffffffffffffffffffffffffffffffffff1614151561090e5760009050610969565b4260016000856000191660001916815260200190815260200160002060020181905550816001600085600019166000191681526020019081526020016000206003019080519060200190610963929190610b4e565b50600190505b92915050565b6000600280549050905090565b6000806001600085600019166000191681526020019081526020016000206003018054600181600116156101000203166002900490501415156109c25760009050610ad4565b6002805490506001600085600019166000191681526020019081526020016000206000018190555060028390806001815401808255809150509060018203906000526020600020016000909192909190915090600019169055503360016000856000191660001916815260200190815260200160002060010160006101000a81548173ffffffffffffffffffffffffffffffffffffffff021916908373ffffffffffffffffffffffffffffffffffffffff1602179055504260016000856000191660001916815260200190815260200160002060020181905550816001600085600019166000191681526020019081526020016000206003019080519060200190610ace929190610b4e565b50600190505b92915050565b815481835581811115610b0157818360005260206000209182019101610b009190610bce565b5b505050565b50805460018160011615610100020316600290046000825580601f10610b2c5750610b4b565b601f016020900490600052602060002090810190610b4a9190610bf3565b5b50565b828054600181600116156101000203166002900490600052602060002090601f016020900481019282601f10610b8f57805160ff1916838001178555610bbd565b82800160010185558215610bbd579182015b82811115610bbc578251825591602001919060010190610ba1565b5b509050610bca9190610bf3565b5090565b610bf091905b80821115610bec576000816000905550600101610bd4565b5090565b90565b610c1591905b80821115610c11576000816000905550600101610bf9565b5090565b905600a165627a7a723058202bd0d0dadf71eddeb4433b454661c7071e00f334ef78e4e3c24531cb1b3819fc0029",
  "source": "pragma solidity ^0.4.4;\n\n\ncontract EventParticipant {\n\n  address   contractOwner;\n\n  struct Event {\n    //internal fields\n    uint      index;\n    address   owner;\n    uint      lastUpdated;\n    //generated fields  \n    string   name;\n  }\n\n  mapping(bytes32 => Event)  eventMap;\n  bytes32[]   eventArray;\n\n  function EventParticipant() public {\n    contractOwner = msg.sender;\n  }\n\n  // Creates Event\n  function createEvent(bytes32 id, \n        //generated fields\n        string name) \n        public returns (bool) {\n    //if event already exists\n    if (bytes(eventMap[id].name).length != 0) {   //TODO\n      return false;\n    }\n\n    //create new event\n    //internal fields\n    eventMap[id].index = eventArray.length;\n    eventArray.push(id);\n    eventMap[id].owner = msg.sender;\n    eventMap[id].lastUpdated = now;\n    //generated fields\n    eventMap[id].name = name; \n    return true;\n  }\n\n  // Returns an Event by name\n  function  readEvent(bytes32 id) constant public returns (address,uint,\n      //generated fields\n      string) {\n    return (eventMap[id].owner, eventMap[id].lastUpdated, \n      //generated fields\n            eventMap[id].name);\n  }\n\n  // Returns an Event by name\n  function  readEventByIndex(uint index) constant public returns (address,uint,\n      //generated fields\n      string) {\n    if(index >= eventArray.length) return;\n    bytes32 id = eventArray[index];\n    return (eventMap[id].owner, eventMap[id].lastUpdated, \n      //generated fields\n            eventMap[id].name);\n  }\n // Updates Event \n  function updateEvent(bytes32 id, \n        //generated fields\n        string name) \n        public  returns (bool) {\n    // if(bytes(eventMap[id].name).length != 0) revert(); //TODO  get rid of names as generated field\n    if (eventMap[id].owner != msg.sender) return false; //only event owner can update      \n\n    eventMap[id].lastUpdated = now;\n    //generated fields\n    eventMap[id].name = name;\n    return true;\n  }\n  \n  // Deletes Event\n  function deleteEvent  (bytes32 id) public  returns (bool) {\n    // if(bytes(eventMap[id].name).length != 0) return false; //TODO  get rid of names as generated field\n    if (eventMap[id].owner != msg.sender) return false; //only event owner can delete      \n\n    var i = eventMap[id].index;\n    var lastEvent = eventArray[eventArray.length-1];\n    eventMap[lastEvent].index = i;\n    eventArray[i] = lastEvent;\n    eventArray.length--;\n   \n    delete(eventMap[id]);\n    return true;\n  }\n\n \n//   // Owner can force delete\n//   function deleteName(address addr) public  returns (bool) {\n//     removeFromAddressesArray(addr);\n//     delete(addressMap[msg.sender]);\n//     return true;\n//   }\n  // Returns eventCount\n  function  countEvent() constant public returns (uint) {\n    return eventArray.length;\n  }\n\n  mapping(address => bytes32[]) public items;\n\n  event ItemCreated(address indexed _address, bytes32 _item);\n  event ItemUpdated(address indexed _address, uint _id);\n  event ItemDestroyed(address indexed _address, uint _id);\n\n}",
  "sourcePath": "/Users/melnikaite/projects/app-generator-vue/contracts/EventParticipant.sol",
  "compiler": {
    "name": "solc",
    "version": "0.4.23+commit.124ca40d.Emscripten.clang"
  },
  "schemaVersion": "2.0.0",
  "updatedAt": "2018-04-21T09:41:01.806Z"
}