{
  "contractName": "ItemContract",
  "abi": [
    {
      "constant": true,
      "inputs": [
        {
          "name": "",
          "type": "uint256"
        }
      ],
      "name": "itemArray",
      "outputs": [
        {
          "name": "",
          "type": "bytes32"
        }
      ],
      "payable": false,
      "stateMutability": "view",
      "type": "function"
    },
    {
      "constant": true,
      "inputs": [
        {
          "name": "",
          "type": "bytes32"
        }
      ],
      "name": "itemMap",
      "outputs": [
        {
          "name": "index",
          "type": "uint256"
        },
        {
          "name": "owner",
          "type": "address"
        },
        {
          "name": "lastUpdated",
          "type": "uint256"
        },
        {
          "name": "initialized",
          "type": "bool"
        },
        {
          "name": "name",
          "type": "string"
        },
        {
          "name": "location",
          "type": "bytes32"
        }
      ],
      "payable": false,
      "stateMutability": "view",
      "type": "function"
    },
    {
      "inputs": [],
      "payable": false,
      "stateMutability": "nonpayable",
      "type": "constructor"
    },
    {
      "anonymous": false,
      "inputs": [
        {
          "indexed": true,
          "name": "_id",
          "type": "bytes32"
        },
        {
          "indexed": true,
          "name": "_name",
          "type": "string"
        }
      ],
      "name": "ItemCreated",
      "type": "event"
    },
    {
      "anonymous": false,
      "inputs": [
        {
          "indexed": true,
          "name": "_id",
          "type": "bytes32"
        },
        {
          "indexed": true,
          "name": "_name",
          "type": "string"
        }
      ],
      "name": "ItemUpdated",
      "type": "event"
    },
    {
      "anonymous": false,
      "inputs": [
        {
          "indexed": true,
          "name": "_id",
          "type": "bytes32"
        },
        {
          "indexed": true,
          "name": "_name",
          "type": "string"
        }
      ],
      "name": "ItemDeleted",
      "type": "event"
    },
    {
      "constant": false,
      "inputs": [
        {
          "name": "id",
          "type": "bytes32"
        },
        {
          "name": "name",
          "type": "string"
        },
        {
          "name": "location",
          "type": "bytes32"
        }
      ],
      "name": "createItem",
      "outputs": [
        {
          "name": "",
          "type": "bool"
        }
      ],
      "payable": false,
      "stateMutability": "nonpayable",
      "type": "function"
    },
    {
      "constant": true,
      "inputs": [
        {
          "name": "id",
          "type": "bytes32"
        }
      ],
      "name": "readItem",
      "outputs": [
        {
          "name": "",
          "type": "address"
        },
        {
          "name": "",
          "type": "uint256"
        },
        {
          "name": "",
          "type": "string"
        },
        {
          "name": "",
          "type": "bytes32"
        }
      ],
      "payable": false,
      "stateMutability": "view",
      "type": "function"
    },
    {
      "constant": true,
      "inputs": [
        {
          "name": "index",
          "type": "uint256"
        }
      ],
      "name": "readItemByIndex",
      "outputs": [
        {
          "name": "",
          "type": "address"
        },
        {
          "name": "",
          "type": "uint256"
        },
        {
          "name": "",
          "type": "string"
        },
        {
          "name": "",
          "type": "bytes32"
        }
      ],
      "payable": false,
      "stateMutability": "view",
      "type": "function"
    },
    {
      "constant": false,
      "inputs": [
        {
          "name": "id",
          "type": "bytes32"
        },
        {
          "name": "name",
          "type": "string"
        },
        {
          "name": "location",
          "type": "bytes32"
        }
      ],
      "name": "updateItem",
      "outputs": [
        {
          "name": "",
          "type": "bool"
        }
      ],
      "payable": false,
      "stateMutability": "nonpayable",
      "type": "function"
    },
    {
      "constant": false,
      "inputs": [
        {
          "name": "id",
          "type": "bytes32"
        }
      ],
      "name": "deleteItem",
      "outputs": [
        {
          "name": "",
          "type": "bool"
        }
      ],
      "payable": false,
      "stateMutability": "nonpayable",
      "type": "function"
    },
    {
      "constant": true,
      "inputs": [],
      "name": "countItem",
      "outputs": [
        {
          "name": "",
          "type": "uint256"
        }
      ],
      "payable": false,
      "stateMutability": "view",
      "type": "function"
    }
  ],
  "bytecode": "0x6060604052341561000f57600080fd5b336000806101000a81548173ffffffffffffffffffffffffffffffffffffffff021916908373ffffffffffffffffffffffffffffffffffffffff1602179055506112418061005e6000396000f30060606040526004361061008e576000357c0100000000000000000000000000000000000000000000000000000000900463ffffffff1680630a725ebd146100935780631c69a7f2146100bc578063397d1f7e146101a55780635de0dc301461028a57806383343d8014610319578063a8a6cc3014610358578063b5d44e1b146103e7578063e8f59db314610426575b600080fd5b341561009e57600080fd5b6100a661053e565b6040518082815260200191505060405180910390f35b34156100c757600080fd5b6100e160048080356000191690602001909190505061054b565b604051808573ffffffffffffffffffffffffffffffffffffffff1673ffffffffffffffffffffffffffffffffffffffff168152602001848152602001806020018360001916600019168152602001828103825284818151815260200191508051906020019080838360005b8381101561016757808201518184015260208101905061014c565b50505050905090810190601f1680156101945780820380516001836020036101000a031916815260200191505b509550505050505060405180910390f35b34156101b057600080fd5b6101c6600480803590602001909190505061069e565b604051808573ffffffffffffffffffffffffffffffffffffffff1673ffffffffffffffffffffffffffffffffffffffff168152602001848152602001806020018360001916600019168152602001828103825284818151815260200191508051906020019080838360005b8381101561024c578082015181840152602081019050610231565b50505050905090810190601f1680156102795780820380516001836020036101000a031916815260200191505b509550505050505060405180910390f35b341561029557600080fd5b6102ff60048080356000191690602001909190803590602001908201803590602001908080601f0160208091040260200160405190810160405280939291908181526020018383808284378201915050505050509190803560001916906020019091905050610823565b604051808215151515815260200191505060405180910390f35b341561032457600080fd5b61033e600480803560001916906020019091905050610a6d565b604051808215151515815260200191505060405180910390f35b341561036357600080fd5b6103cd60048080356000191690602001909190803590602001908201803590602001908080601f0160208091040260200160405190810160405280939291908181526020018383808284378201915050505050509190803560001916906020019091905050610da5565b604051808215151515815260200191505060405180910390f35b34156103f257600080fd5b610408600480803590602001909190505061100b565b60405180826000191660001916815260200191505060405180910390f35b341561043157600080fd5b61044b60048080356000191690602001909190505061102f565b604051808781526020018673ffffffffffffffffffffffffffffffffffffffff1673ffffffffffffffffffffffffffffffffffffffff1681526020018581526020018415151515815260200180602001836000191660001916815260200182810382528481815460018160011615610100020316600290048152602001915080546001816001161561010002031660029004801561052a5780601f106104ff5761010080835404028352916020019161052a565b820191906000526020600020905b81548152906001019060200180831161050d57829003601f168201915b505097505050505050505060405180910390f35b6000600280549050905090565b600080610556611097565b600060016000866000191660001916815260200190815260200160002060010160009054906101000a900473ffffffffffffffffffffffffffffffffffffffff166001600087600019166000191681526020019081526020016000206002015460016000886000191660001916815260200190815260200160002060040160016000896000191660001916815260200190815260200160002060050154818054600181600116156101000203166002900480601f0160208091040260200160405190810160405280929190818152602001828054600181600116156101000203166002900480156106885780601f1061065d57610100808354040283529160200191610688565b820191906000526020600020905b81548152906001019060200180831161066b57829003601f168201915b5050505050915093509350935093509193509193565b6000806106a9611097565b600080600280549050861015156106bf57600080fd5b6002868154811015156106ce57fe5b906000526020600020900154905060016000826000191660001916815260200190815260200160002060010160009054906101000a900473ffffffffffffffffffffffffffffffffffffffff166001600083600019166000191681526020019081526020016000206002015460016000846000191660001916815260200190815260200160002060040160016000856000191660001916815260200190815260200160002060050154818054600181600116156101000203166002900480601f01602080910402602001604051908101604052809291908181526020018280546001816001161561010002031660029004801561080c5780601f106107e15761010080835404028352916020019161080c565b820191906000526020600020905b8154815290600101906020018083116107ef57829003601f168201915b505050505091509450945094509450509193509193565b60008073ffffffffffffffffffffffffffffffffffffffff1660016000866000191660001916815260200190815260200160002060010160009054906101000a900473ffffffffffffffffffffffffffffffffffffffff1673ffffffffffffffffffffffffffffffffffffffff1614151561089d57600080fd5b60028054905060016000866000191660001916815260200190815260200160002060000181905550600280548060010182816108d991906110ab565b9160005260206000209001600086909190915090600019169055503360016000866000191660001916815260200190815260200160002060010160006101000a81548173ffffffffffffffffffffffffffffffffffffffff021916908373ffffffffffffffffffffffffffffffffffffffff16021790555042600160008660001916600019168152602001908152602001600020600201819055508260016000866000191660001916815260200190815260200160002060040190805190602001906109a69291906110d7565b50816001600086600019166000191681526020019081526020016000206005018160001916905550826040518082805190602001908083835b602083101515610a0457805182526020820191506020810190506020830392506109df565b6001836020036101000a038019825116818451168082178552505050505050905001915050604051809103902084600019167f1aa674ac7801edb704ff961546c29709822385f265ead86c803abd09b9d07d1460405160405180910390a3600190509392505050565b600080600080600073ffffffffffffffffffffffffffffffffffffffff1660016000876000191660001916815260200190815260200160002060010160009054906101000a900473ffffffffffffffffffffffffffffffffffffffff1673ffffffffffffffffffffffffffffffffffffffff1614151515610aed57600080fd5b3373ffffffffffffffffffffffffffffffffffffffff1660016000876000191660001916815260200190815260200160002060010160009054906101000a900473ffffffffffffffffffffffffffffffffffffffff1673ffffffffffffffffffffffffffffffffffffffff161480610bb157503373ffffffffffffffffffffffffffffffffffffffff166000809054906101000a900473ffffffffffffffffffffffffffffffffffffffff1673ffffffffffffffffffffffffffffffffffffffff16145b1515610bbc57600080fd5b6001600086600019166000191681526020019081526020016000206000015492506002600160028054905003815481101515610bf457fe5b9060005260206000209001549150826001600084600019166000191681526020019081526020016000206000018190555081600284815481101515610c3557fe5b906000526020600020900181600019169055506002805480919060019003610c5d9190611157565b5060016000836000191660001916815260200190815260200160002060040190506001600086600019166000191681526020019081526020016000206000808201600090556001820160006101000a81549073ffffffffffffffffffffffffffffffffffffffff021916905560028201600090556003820160006101000a81549060ff0219169055600482016000610cf59190611183565b60058201600090555050806040518082805460018160011615610100020316600290048015610d5b5780601f10610d39576101008083540402835291820191610d5b565b820191906000526020600020905b815481529060010190602001808311610d47575b5050915050604051809103902085600019167fec4a3cea52144207ecd2d9d67f91f311bf2b6288d0a039b327a818a3a982ff7260405160405180910390a360019350505050919050565b60008073ffffffffffffffffffffffffffffffffffffffff1660016000866000191660001916815260200190815260200160002060010160009054906101000a900473ffffffffffffffffffffffffffffffffffffffff1673ffffffffffffffffffffffffffffffffffffffff1614151515610e2057600080fd5b3373ffffffffffffffffffffffffffffffffffffffff1660016000866000191660001916815260200190815260200160002060010160009054906101000a900473ffffffffffffffffffffffffffffffffffffffff1673ffffffffffffffffffffffffffffffffffffffff161480610ee457503373ffffffffffffffffffffffffffffffffffffffff166000809054906101000a900473ffffffffffffffffffffffffffffffffffffffff1673ffffffffffffffffffffffffffffffffffffffff16145b1515610eef57600080fd5b4260016000866000191660001916815260200190815260200160002060020181905550826001600086600019166000191681526020019081526020016000206004019080519060200190610f449291906110d7565b50816001600086600019166000191681526020019081526020016000206005018160001916905550826040518082805190602001908083835b602083101515610fa25780518252602082019150602081019050602083039250610f7d565b6001836020036101000a038019825116818451168082178552505050505050905001915050604051809103902084600019167fd5d2d7790f1c5e0f152d47c0554cdd9a378fa584378a074611174b2eda15241260405160405180910390a3600190509392505050565b60028181548110151561101a57fe5b90600052602060002090016000915090505481565b60016020528060005260406000206000915090508060000154908060010160009054906101000a900473ffffffffffffffffffffffffffffffffffffffff16908060020154908060030160009054906101000a900460ff169080600401908060050154905086565b602060405190810160405280600081525090565b8154818355818115116110d2578183600052602060002091820191016110d191906111cb565b5b505050565b828054600181600116156101000203166002900490600052602060002090601f016020900481019282601f1061111857805160ff1916838001178555611146565b82800160010185558215611146579182015b8281111561114557825182559160200191906001019061112a565b5b50905061115391906111f0565b5090565b81548183558181151161117e5781836000526020600020918201910161117d91906111cb565b5b505050565b50805460018160011615610100020316600290046000825580601f106111a957506111c8565b601f0160209004906000526020600020908101906111c791906111f0565b5b50565b6111ed91905b808211156111e95760008160009055506001016111d1565b5090565b90565b61121291905b8082111561120e5760008160009055506001016111f6565b5090565b905600a165627a7a72305820cb18d18530d20423c061ad8631a2a8885b320e110a640f8abb5265a39bf5ef9b0029",
  "source": "pragma solidity ^0.4.4;\r\n\r\n\r\ncontract ItemContract {\r\n\r\n  address   contractOwner;\r\n\r\n  struct Item {\r\n    //internal fields\r\n    uint      index;\r\n    address   owner;\r\n    uint      lastUpdated;\r\n    bool initialized;\r\n    //generated fields  \r\n    string   name;\r\n    bytes32 location;\r\n    // uint lengthInHours;\r\n    // uint price;\r\n    // bytes3 currencyTicker;\r\n\r\n  }\r\n\r\n  mapping(bytes32 => Item) public itemMap;\r\n  bytes32[] public itemArray;\r\n\r\n  function ItemContract() public {\r\n    contractOwner = msg.sender;\r\n  }\r\n\r\n  // Creates Item\r\n  function createItem(bytes32 id, \r\n        //generated fields\r\n        string name, bytes32 location) \r\n        public returns (bool) {\r\n    \r\n    //item already exists\r\n     require (itemMap[id].owner == address(0));\r\n  \r\n    //create new item\r\n    //internal fields\r\n    itemMap[id].index = itemArray.length;\r\n    itemArray.push(id);\r\n    itemMap[id].owner = msg.sender;\r\n    itemMap[id].lastUpdated = now;\r\n    //generated fields\r\n    itemMap[id].name = name; \r\n    itemMap[id].location = location;\r\n    ItemCreated(id, \r\n        //generated fields - only param 1??? \r\n        name);\r\n    return true;\r\n  }\r\n\r\n  // Returns an Item by name\r\n  function  readItem(bytes32 id) constant public returns (address,uint,\r\n      //generated fields\r\n      string, bytes32) {\r\n    return (itemMap[id].owner, itemMap[id].lastUpdated, \r\n      //generated fields\r\n            itemMap[id].name, itemMap[id].location);\r\n  }\r\n\r\n  // Returns an Item by name\r\n  function  readItemByIndex(uint index) constant public returns (address,uint,\r\n      //generated fields\r\n        string, bytes32) {\r\n    require(index < itemArray.length);\r\n    bytes32 id = itemArray[index];\r\n    return (itemMap[id].owner, itemMap[id].lastUpdated, \r\n      //generated fields\r\n            itemMap[id].name, itemMap[id].location);\r\n  }\r\n // Updates Item \r\n  function updateItem(bytes32 id, \r\n        //generated fields\r\n        string name,\r\n        bytes32 location) \r\n        public  returns (bool) {\r\n    //item should exist\r\n    require (itemMap[id].owner != address(0));\r\n    require (itemMap[id].owner == msg.sender || contractOwner == msg.sender); //only item owner or contract owner can update   \r\n\r\n    itemMap[id].lastUpdated = now;\r\n    //generated fields\r\n    itemMap[id].name = name;\r\n    itemMap[id].location = location;\r\n    ItemUpdated(id, \r\n        //generated fields - only param 1??? \r\n        name);\r\n    return true;\r\n  }\r\n  \r\n  // Deletes Item\r\n  function deleteItem  (bytes32 id) public  returns (bool) {\r\n    // if(bytes(itemMap[id].name).length != 0) return false; //TODO  get rid of names as generated field\r\n    //item should  exist\r\n    require (itemMap[id].owner != address(0));\r\n    require (itemMap[id].owner == msg.sender || contractOwner == msg.sender); //only item owner or contract owner can update   \r\n\r\n    var i = itemMap[id].index;\r\n    var lastItem = itemArray[itemArray.length-1];\r\n    itemMap[lastItem].index = i;\r\n    itemArray[i] = lastItem;\r\n    itemArray.length--;\r\n    var name = itemMap[lastItem].name;\r\n    delete(itemMap[id]);\r\n    ItemDeleted(id, \r\n        //generated fields - only param 1??? \r\n        name);\r\n    return true;\r\n  }\r\n\r\n  // Returns itemCount\r\n  function  countItem() constant public returns (uint) {\r\n    return itemArray.length;\r\n  }\r\n\r\n\r\n  event ItemCreated(bytes32 indexed _id,\r\n        //generated fields - only param 1??? \r\n        string indexed _name);\r\n  event ItemUpdated(bytes32 indexed _id,\r\n        //generated fields - only param 1??? \r\n        string indexed _name);\r\n  event ItemDeleted(bytes32 indexed _id,\r\n        //generated fields - only param 1??? \r\n        string indexed _name);\r\n\r\n}",
  "sourcePath": "C:\\ForteBackup\\Blockchain\\Development\\udemy\\acloudfan\\contracts\\app-generator-vue\\contracts\\ItemContract.sol",
  "compiler": {
    "name": "solc",
    "version": "0.4.19+commit.c4cbbb05.Emscripten.clang"
  },
  "schemaVersion": "2.0.0",
  "updatedAt": "2018-04-21T12:21:31.858Z"
}