{
  "contractName": "ItemContract",
  "abi": [
    {
      "constant": true,
      "inputs": [
        {
          "name": "",
          "type": "uint256"
        }
      ],
      "name": "itemArray",
      "outputs": [
        {
          "name": "",
          "type": "bytes32"
        }
      ],
      "payable": false,
      "stateMutability": "view",
      "type": "function"
    },
    {
      "constant": true,
      "inputs": [
        {
          "name": "",
          "type": "bytes32"
        }
      ],
      "name": "itemMap",
      "outputs": [
        {
          "name": "index",
          "type": "uint256"
        },
        {
          "name": "owner",
          "type": "address"
        },
        {
          "name": "lastUpdated",
          "type": "uint256"
        },
        {
          "name": "initialized",
          "type": "bool"
        },
        {
          "name": "name",
          "type": "string"
        },
        {
          "name": "location",
          "type": "bytes32"
        }
      ],
      "payable": false,
      "stateMutability": "view",
      "type": "function"
    },
    {
      "inputs": [],
      "payable": false,
      "stateMutability": "nonpayable",
      "type": "constructor"
    },
    {
      "anonymous": false,
      "inputs": [
        {
          "indexed": true,
          "name": "_id",
          "type": "bytes32"
        },
        {
          "indexed": false,
          "name": "_name",
          "type": "string"
        }
      ],
      "name": "ItemCreated",
      "type": "event"
    },
    {
      "anonymous": false,
      "inputs": [
        {
          "indexed": true,
          "name": "_id",
          "type": "bytes32"
        },
        {
          "indexed": false,
          "name": "_name",
          "type": "string"
        }
      ],
      "name": "ItemUpdated",
      "type": "event"
    },
    {
      "anonymous": false,
      "inputs": [
        {
          "indexed": true,
          "name": "_id",
          "type": "bytes32"
        },
        {
          "indexed": false,
          "name": "_name",
          "type": "string"
        }
      ],
      "name": "ItemDeleted",
      "type": "event"
    },
    {
      "constant": false,
      "inputs": [
        {
          "name": "id",
          "type": "bytes32"
        },
        {
          "name": "name",
          "type": "string"
        },
        {
          "name": "location",
          "type": "bytes32"
        }
      ],
      "name": "createItem",
      "outputs": [
        {
          "name": "",
          "type": "bool"
        }
      ],
      "payable": false,
      "stateMutability": "nonpayable",
      "type": "function"
    },
    {
      "constant": true,
      "inputs": [
        {
          "name": "id",
          "type": "bytes32"
        }
      ],
      "name": "readItem",
      "outputs": [
        {
          "name": "",
          "type": "address"
        },
        {
          "name": "",
          "type": "uint256"
        },
        {
          "name": "",
          "type": "string"
        },
        {
          "name": "",
          "type": "bytes32"
        }
      ],
      "payable": false,
      "stateMutability": "view",
      "type": "function"
    },
    {
      "constant": true,
      "inputs": [
        {
          "name": "index",
          "type": "uint256"
        }
      ],
      "name": "readItemByIndex",
      "outputs": [
        {
          "name": "",
          "type": "address"
        },
        {
          "name": "",
          "type": "uint256"
        },
        {
          "name": "",
          "type": "string"
        },
        {
          "name": "",
          "type": "bytes32"
        }
      ],
      "payable": false,
      "stateMutability": "view",
      "type": "function"
    },
    {
      "constant": false,
      "inputs": [
        {
          "name": "id",
          "type": "bytes32"
        },
        {
          "name": "name",
          "type": "string"
        },
        {
          "name": "location",
          "type": "bytes32"
        }
      ],
      "name": "updateItem",
      "outputs": [
        {
          "name": "",
          "type": "bool"
        }
      ],
      "payable": false,
      "stateMutability": "nonpayable",
      "type": "function"
    },
    {
      "constant": false,
      "inputs": [
        {
          "name": "id",
          "type": "bytes32"
        }
      ],
      "name": "deleteItem",
      "outputs": [
        {
          "name": "",
          "type": "bool"
        }
      ],
      "payable": false,
      "stateMutability": "nonpayable",
      "type": "function"
    },
    {
      "constant": true,
      "inputs": [],
      "name": "countItem",
      "outputs": [
        {
          "name": "",
          "type": "uint256"
        }
      ],
      "payable": false,
      "stateMutability": "view",
      "type": "function"
    }
  ],
  "bytecode": "0x608060405234801561001057600080fd5b50336000806101000a81548173ffffffffffffffffffffffffffffffffffffffff021916908373ffffffffffffffffffffffffffffffffffffffff1602179055506112fe806100606000396000f30060806040526004361061008e576000357c0100000000000000000000000000000000000000000000000000000000900463ffffffff1680630a725ebd146100935780631c69a7f2146100be578063397d1f7e146101b15780635de0dc30146102a057806383343d801461033d578063a8a6cc3014610386578063b5d44e1b14610423578063e8f59db31461046c575b600080fd5b34801561009f57600080fd5b506100a8610571565b6040518082815260200191505060405180910390f35b3480156100ca57600080fd5b506100ed600480360381019080803560001916906020019092919050505061057e565b604051808573ffffffffffffffffffffffffffffffffffffffff1673ffffffffffffffffffffffffffffffffffffffff168152602001848152602001806020018360001916600019168152602001828103825284818151815260200191508051906020019080838360005b83811015610173578082015181840152602081019050610158565b50505050905090810190601f1680156101a05780820380516001836020036101000a031916815260200191505b509550505050505060405180910390f35b3480156101bd57600080fd5b506101dc600480360381019080803590602001909291905050506106cb565b604051808573ffffffffffffffffffffffffffffffffffffffff1673ffffffffffffffffffffffffffffffffffffffff168152602001848152602001806020018360001916600019168152602001828103825284818151815260200191508051906020019080838360005b83811015610262578082015181840152602081019050610247565b50505050905090810190601f16801561028f5780820380516001836020036101000a031916815260200191505b509550505050505060405180910390f35b3480156102ac57600080fd5b506103236004803603810190808035600019169060200190929190803590602001908201803590602001908080601f01602080910402602001604051908101604052809392919081815260200183838082843782019150505050505091929192908035600019169060200190929190505050610849565b604051808215151515815260200191505060405180910390f35b34801561034957600080fd5b5061036c6004803603810190808035600019169060200190929190505050610aa3565b604051808215151515815260200191505060405180910390f35b34801561039257600080fd5b506104096004803603810190808035600019169060200190929190803590602001908201803590602001908080601f01602080910402602001604051908101604052809392919081815260200183838082843782019150505050505091929192908035600019169060200190929190505050610dfd565b604051808215151515815260200191505060405180910390f35b34801561042f57600080fd5b5061044e60048036038101908080359060200190929190505050611070565b60405180826000191660001916815260200191505060405180910390f35b34801561047857600080fd5b5061049b6004803603810190808035600019169060200190929190505050611093565b604051808781526020018673ffffffffffffffffffffffffffffffffffffffff1673ffffffffffffffffffffffffffffffffffffffff16815260200185815260200184151515158152602001806020018360001916600019168152602001828103825284818151815260200191508051906020019080838360005b83811015610531578082015181840152602081019050610516565b50505050905090810190601f16801561055e5780820380516001836020036101000a031916815260200191505b5097505050505050505060405180910390f35b6000600280549050905090565b6000806060600060016000866000191660001916815260200190815260200160002060010160009054906101000a900473ffffffffffffffffffffffffffffffffffffffff166001600087600019166000191681526020019081526020016000206002015460016000886000191660001916815260200190815260200160002060040160016000896000191660001916815260200190815260200160002060050154818054600181600116156101000203166002900480601f0160208091040260200160405190810160405280929190818152602001828054600181600116156101000203166002900480156106b55780601f1061068a576101008083540402835291602001916106b5565b820191906000526020600020905b81548152906001019060200180831161069857829003601f168201915b5050505050915093509350935093509193509193565b6000806060600080600280549050861015156106e657600080fd5b6002868154811015156106f557fe5b9060005260206000200154905060016000826000191660001916815260200190815260200160002060010160009054906101000a900473ffffffffffffffffffffffffffffffffffffffff166001600083600019166000191681526020019081526020016000206002015460016000846000191660001916815260200190815260200160002060040160016000856000191660001916815260200190815260200160002060050154818054600181600116156101000203166002900480601f0160208091040260200160405190810160405280929190818152602001828054600181600116156101000203166002900480156108325780601f1061080757610100808354040283529160200191610832565b820191906000526020600020905b81548152906001019060200180831161081557829003601f168201915b505050505091509450945094509450509193509193565b60008073ffffffffffffffffffffffffffffffffffffffff1660016000866000191660001916815260200190815260200160002060010160009054906101000a900473ffffffffffffffffffffffffffffffffffffffff1673ffffffffffffffffffffffffffffffffffffffff161415156108c357600080fd5b6002805490506001600086600019166000191681526020019081526020016000206000018190555060028490806001815401808255809150509060018203906000526020600020016000909192909190915090600019169055503360016000866000191660001916815260200190815260200160002060010160006101000a81548173ffffffffffffffffffffffffffffffffffffffff021916908373ffffffffffffffffffffffffffffffffffffffff16021790555042600160008660001916600019168152602001908152602001600020600201819055508260016000866000191660001916815260200190815260200160002060040190805190602001906109cf929190611194565b5081600160008660001916600019168152602001908152602001600020600501816000191690555083600019167f1aa674ac7801edb704ff961546c29709822385f265ead86c803abd09b9d07d14846040518080602001828103825283818151815260200191508051906020019080838360005b83811015610a5e578082015181840152602081019050610a43565b50505050905090810190601f168015610a8b5780820380516001836020036101000a031916815260200191505b509250505060405180910390a2600190509392505050565b600080600080600073ffffffffffffffffffffffffffffffffffffffff1660016000876000191660001916815260200190815260200160002060010160009054906101000a900473ffffffffffffffffffffffffffffffffffffffff1673ffffffffffffffffffffffffffffffffffffffff1614151515610b2357600080fd5b3373ffffffffffffffffffffffffffffffffffffffff1660016000876000191660001916815260200190815260200160002060010160009054906101000a900473ffffffffffffffffffffffffffffffffffffffff1673ffffffffffffffffffffffffffffffffffffffff161480610be757503373ffffffffffffffffffffffffffffffffffffffff166000809054906101000a900473ffffffffffffffffffffffffffffffffffffffff1673ffffffffffffffffffffffffffffffffffffffff16145b1515610bf257600080fd5b6001600086600019166000191681526020019081526020016000206000015492506002600160028054905003815481101515610c2a57fe5b90600052602060002001549150826001600084600019166000191681526020019081526020016000206000018190555081600284815481101515610c6a57fe5b9060005260206000200181600019169055506002805480919060019003610c919190611214565b50600160008360001916600019168152602001908152602001600020600401905084600019167fec4a3cea52144207ecd2d9d67f91f311bf2b6288d0a039b327a818a3a982ff72826040518080602001828103825283818154600181600116156101000203166002900481526020019150805460018160011615610100020316600290048015610d625780601f10610d3757610100808354040283529160200191610d62565b820191906000526020600020905b815481529060010190602001808311610d4557829003601f168201915b50509250505060405180910390a26001600086600019166000191681526020019081526020016000206000808201600090556001820160006101000a81549073ffffffffffffffffffffffffffffffffffffffff021916905560028201600090556003820160006101000a81549060ff0219169055600482016000610de79190611240565b6005820160009055505060019350505050919050565b60008073ffffffffffffffffffffffffffffffffffffffff1660016000866000191660001916815260200190815260200160002060010160009054906101000a900473ffffffffffffffffffffffffffffffffffffffff1673ffffffffffffffffffffffffffffffffffffffff1614151515610e7857600080fd5b3373ffffffffffffffffffffffffffffffffffffffff1660016000866000191660001916815260200190815260200160002060010160009054906101000a900473ffffffffffffffffffffffffffffffffffffffff1673ffffffffffffffffffffffffffffffffffffffff161480610f3c57503373ffffffffffffffffffffffffffffffffffffffff166000809054906101000a900473ffffffffffffffffffffffffffffffffffffffff1673ffffffffffffffffffffffffffffffffffffffff16145b1515610f4757600080fd5b4260016000866000191660001916815260200190815260200160002060020181905550826001600086600019166000191681526020019081526020016000206004019080519060200190610f9c929190611194565b5081600160008660001916600019168152602001908152602001600020600501816000191690555083600019167fd5d2d7790f1c5e0f152d47c0554cdd9a378fa584378a074611174b2eda152412846040518080602001828103825283818151815260200191508051906020019080838360005b8381101561102b578082015181840152602081019050611010565b50505050905090810190601f1680156110585780820380516001836020036101000a031916815260200191505b509250505060405180910390a2600190509392505050565b60028181548110151561107f57fe5b906000526020600020016000915090505481565b60016020528060005260406000206000915090508060000154908060010160009054906101000a900473ffffffffffffffffffffffffffffffffffffffff16908060020154908060030160009054906101000a900460ff1690806004018054600181600116156101000203166002900480601f0160208091040260200160405190810160405280929190818152602001828054600181600116156101000203166002900480156111845780601f1061115957610100808354040283529160200191611184565b820191906000526020600020905b81548152906001019060200180831161116757829003601f168201915b5050505050908060050154905086565b828054600181600116156101000203166002900490600052602060002090601f016020900481019282601f106111d557805160ff1916838001178555611203565b82800160010185558215611203579182015b828111156112025782518255916020019190600101906111e7565b5b5090506112109190611288565b5090565b81548183558181111561123b5781836000526020600020918201910161123a91906112ad565b5b505050565b50805460018160011615610100020316600290046000825580601f106112665750611285565b601f0160209004906000526020600020908101906112849190611288565b5b50565b6112aa91905b808211156112a657600081600090555060010161128e565b5090565b90565b6112cf91905b808211156112cb5760008160009055506001016112b3565b5090565b905600a165627a7a723058201e106a6bc4ae140149be880c6876be7bc878515fbccf393215637e5e1f94a2ef0029",
  "source": "pragma solidity ^0.4.4;\n\n\ncontract ItemContract {\n\n  address   contractOwner;\n\n  struct Item {\n    //internal fields\n    uint      index;\n    address   owner;\n    uint      lastUpdated;\n    bool initialized;\n    //generated fields  \n    string   name;\n    bytes32 location;\n    // uint lengthInHours;\n    // uint price;\n    // bytes3 currencyTicker;\n\n  }\n\n  mapping(bytes32 => Item) public itemMap;\n  bytes32[] public itemArray;\n\n  function ItemContract() public {\n    contractOwner = msg.sender;\n  }\n\n  // Creates Item\n  function createItem(bytes32 id, \n        //generated fields\n        string name, bytes32 location) \n        public returns (bool) {\n    \n    //item already exists\n     require (itemMap[id].owner == address(0));\n  \n    //create new item\n    //internal fields\n    itemMap[id].index = itemArray.length;\n    itemArray.push(id);\n    itemMap[id].owner = msg.sender;\n    itemMap[id].lastUpdated = now;\n    //generated fields\n    itemMap[id].name = name; \n    itemMap[id].location = location;\n    ItemCreated(id, \n        //generated fields - only param 1??? \n        name);\n    return true;\n  }\n\n  // Returns an Item by name\n  function  readItem(bytes32 id) constant public returns (address,uint,\n      //generated fields\n      string, bytes32) {\n    return (itemMap[id].owner, itemMap[id].lastUpdated, \n      //generated fields\n            itemMap[id].name, itemMap[id].location);\n  }\n\n  // Returns an Item by name\n  function  readItemByIndex(uint index) constant public returns (address,uint,\n      //generated fields\n        string, bytes32) {\n    require(index < itemArray.length);\n    bytes32 id = itemArray[index];\n    return (itemMap[id].owner, itemMap[id].lastUpdated, \n      //generated fields\n            itemMap[id].name, itemMap[id].location);\n  }\n // Updates Item \n  function updateItem(bytes32 id, \n        //generated fields\n        string name,\n        bytes32 location) \n        public  returns (bool) {\n    //item should exist\n    require (itemMap[id].owner != address(0));\n    require (itemMap[id].owner == msg.sender || contractOwner == msg.sender); //only item owner or contract owner can update   \n\n    itemMap[id].lastUpdated = now;\n    //generated fields\n    itemMap[id].name = name;\n    itemMap[id].location = location;\n    ItemUpdated(id, \n        //generated fields - only param 1??? \n        name);\n    return true;\n  }\n  \n  // Deletes Item\n  function deleteItem  (bytes32 id) public  returns (bool) {\n    // if(bytes(itemMap[id].name).length != 0) return false; //TODO  get rid of names as generated field\n    //item should  exist\n    require (itemMap[id].owner != address(0));\n    require (itemMap[id].owner == msg.sender || contractOwner == msg.sender); //only item owner or contract owner can update   \n\n    var i = itemMap[id].index;\n    var lastItem = itemArray[itemArray.length-1];\n    itemMap[lastItem].index = i;\n    itemArray[i] = lastItem;\n    itemArray.length--;\n    var name = itemMap[lastItem].name;\n  \n    ItemDeleted(id, \n        //generated fields - only param 1??? \n        name);\n    delete(itemMap[id]);\n    return true;\n  }\n\n  // Returns itemCount\n  function  countItem() constant public returns (uint) {\n    return itemArray.length;\n  }\n\n\n  event ItemCreated(bytes32 indexed _id,\n        //generated fields - only param 1??? \n        string  _name);\n  event ItemUpdated(bytes32 indexed _id,\n        //generated fields - only param 1??? \n        string  _name);\n  event ItemDeleted(bytes32 indexed _id,\n        //generated fields - only param 1??? \n        string  _name);\n\n}",
  "sourcePath": "/Users/melnikaite/projects/app-generator-vue/contracts/ItemContract.sol",
  "compiler": {
    "name": "solc",
    "version": "0.4.23+commit.124ca40d.Emscripten.clang"
  },
  "schemaVersion": "2.0.0",
  "updatedAt": "2018-04-21T14:25:29.557Z"
}