{
  "contractName": "ItemContract",
  "abi": [
    {
      "inputs": [],
      "payable": false,
      "stateMutability": "nonpayable",
      "type": "constructor"
    },
    {
      "anonymous": false,
      "inputs": [
        {
          "indexed": true,
          "name": "_address",
          "type": "address"
        },
        {
          "indexed": false,
          "name": "_item",
          "type": "bytes32"
        }
      ],
      "name": "ItemCreated",
      "type": "event"
    },
    {
      "anonymous": false,
      "inputs": [
        {
          "indexed": true,
          "name": "_address",
          "type": "address"
        },
        {
          "indexed": false,
          "name": "_id",
          "type": "uint256"
        }
      ],
      "name": "ItemUpdated",
      "type": "event"
    },
    {
      "anonymous": false,
      "inputs": [
        {
          "indexed": true,
          "name": "_address",
          "type": "address"
        },
        {
          "indexed": false,
          "name": "_id",
          "type": "uint256"
        }
      ],
      "name": "ItemDeleted",
      "type": "event"
    },
    {
      "constant": false,
      "inputs": [
        {
          "name": "id",
          "type": "bytes32"
        },
        {
          "name": "name",
          "type": "string"
        },
        {
          "name": "location",
          "type": "bytes32"
        }
      ],
      "name": "createItem",
      "outputs": [
        {
          "name": "",
          "type": "bool"
        }
      ],
      "payable": false,
      "stateMutability": "nonpayable",
      "type": "function"
    },
    {
      "constant": true,
      "inputs": [
        {
          "name": "id",
          "type": "bytes32"
        }
      ],
      "name": "readItem",
      "outputs": [
        {
          "name": "",
          "type": "address"
        },
        {
          "name": "",
          "type": "uint256"
        },
        {
          "name": "",
          "type": "string"
        },
        {
          "name": "",
          "type": "bytes32"
        }
      ],
      "payable": false,
      "stateMutability": "view",
      "type": "function"
    },
    {
      "constant": true,
      "inputs": [
        {
          "name": "index",
          "type": "uint256"
        }
      ],
      "name": "readItemByIndex",
      "outputs": [
        {
          "name": "",
          "type": "address"
        },
        {
          "name": "",
          "type": "uint256"
        },
        {
          "name": "",
          "type": "string"
        },
        {
          "name": "",
          "type": "bytes32"
        }
      ],
      "payable": false,
      "stateMutability": "view",
      "type": "function"
    },
    {
      "constant": false,
      "inputs": [
        {
          "name": "id",
          "type": "bytes32"
        },
        {
          "name": "name",
          "type": "string"
        },
        {
          "name": "location",
          "type": "bytes32"
        }
      ],
      "name": "updateItem",
      "outputs": [
        {
          "name": "",
          "type": "bool"
        }
      ],
      "payable": false,
      "stateMutability": "nonpayable",
      "type": "function"
    },
    {
      "constant": false,
      "inputs": [
        {
          "name": "id",
          "type": "bytes32"
        }
      ],
      "name": "deleteItem",
      "outputs": [
        {
          "name": "",
          "type": "bool"
        }
      ],
      "payable": false,
      "stateMutability": "nonpayable",
      "type": "function"
    },
    {
      "constant": true,
      "inputs": [],
      "name": "countItem",
      "outputs": [
        {
          "name": "",
          "type": "uint256"
        }
      ],
      "payable": false,
      "stateMutability": "view",
      "type": "function"
    }
  ],
  "bytecode": "0x6060604052341561000f57600080fd5b336000806101000a81548173ffffffffffffffffffffffffffffffffffffffff021916908373ffffffffffffffffffffffffffffffffffffffff160217905550610e638061005e6000396000f300606060405260043610610078576000357c0100000000000000000000000000000000000000000000000000000000900463ffffffff1680630a725ebd1461007d5780631c69a7f2146100a6578063397d1f7e1461018f5780635de0dc301461027457806383343d8014610303578063a8a6cc3014610342575b600080fd5b341561008857600080fd5b6100906103d1565b6040518082815260200191505060405180910390f35b34156100b157600080fd5b6100cb6004808035600019169060200190919050506103de565b604051808573ffffffffffffffffffffffffffffffffffffffff1673ffffffffffffffffffffffffffffffffffffffff168152602001848152602001806020018360001916600019168152602001828103825284818151815260200191508051906020019080838360005b83811015610151578082015181840152602081019050610136565b50505050905090810190601f16801561017e5780820380516001836020036101000a031916815260200191505b509550505050505060405180910390f35b341561019a57600080fd5b6101b06004808035906020019091905050610531565b604051808573ffffffffffffffffffffffffffffffffffffffff1673ffffffffffffffffffffffffffffffffffffffff168152602001848152602001806020018360001916600019168152602001828103825284818151815260200191508051906020019080838360005b8381101561023657808201518184015260208101905061021b565b50505050905090810190601f1680156102635780820380516001836020036101000a031916815260200191505b509550505050505060405180910390f35b341561027f57600080fd5b6102e960048080356000191690602001909190803590602001908201803590602001908080601f01602080910402602001604051908101604052809392919081815260200183838082843782019150505050505091908035600019169060200190919050506106b6565b604051808215151515815260200191505060405180910390f35b341561030e57600080fd5b61032860048080356000191690602001909190505061086c565b604051808215151515815260200191505060405180910390f35b341561034d57600080fd5b6103b760048080356000191690602001909190803590602001908201803590602001908080601f0160208091040260200160405190810160405280939291908181526020018383808284378201915050505050509190803560001916906020019091905050610ae7565b604051808215151515815260200191505060405180910390f35b6000600280549050905090565b6000806103e9610cb9565b600060016000866000191660001916815260200190815260200160002060010160009054906101000a900473ffffffffffffffffffffffffffffffffffffffff166001600087600019166000191681526020019081526020016000206002015460016000886000191660001916815260200190815260200160002060040160016000896000191660001916815260200190815260200160002060050154818054600181600116156101000203166002900480601f01602080910402602001604051908101604052809291908181526020018280546001816001161561010002031660029004801561051b5780601f106104f05761010080835404028352916020019161051b565b820191906000526020600020905b8154815290600101906020018083116104fe57829003601f168201915b5050505050915093509350935093509193509193565b60008061053c610cb9565b6000806002805490508610151561055257600080fd5b60028681548110151561056157fe5b906000526020600020900154905060016000826000191660001916815260200190815260200160002060010160009054906101000a900473ffffffffffffffffffffffffffffffffffffffff166001600083600019166000191681526020019081526020016000206002015460016000846000191660001916815260200190815260200160002060040160016000856000191660001916815260200190815260200160002060050154818054600181600116156101000203166002900480601f01602080910402602001604051908101604052809291908181526020018280546001816001161561010002031660029004801561069f5780601f106106745761010080835404028352916020019161069f565b820191906000526020600020905b81548152906001019060200180831161068257829003601f168201915b505050505091509450945094509450509193509193565b60008073ffffffffffffffffffffffffffffffffffffffff1660016000866000191660001916815260200190815260200160002060010160009054906101000a900473ffffffffffffffffffffffffffffffffffffffff1673ffffffffffffffffffffffffffffffffffffffff1614151561073057600080fd5b600280549050600160008660001916600019168152602001908152602001600020600001819055506002805480600101828161076c9190610ccd565b9160005260206000209001600086909190915090600019169055503360016000866000191660001916815260200190815260200160002060010160006101000a81548173ffffffffffffffffffffffffffffffffffffffff021916908373ffffffffffffffffffffffffffffffffffffffff1602179055504260016000866000191660001916815260200190815260200160002060020181905550826001600086600019166000191681526020019081526020016000206004019080519060200190610839929190610cf9565b50816001600086600019166000191681526020019081526020016000206005018160001916905550600190509392505050565b60008060008073ffffffffffffffffffffffffffffffffffffffff1660016000866000191660001916815260200190815260200160002060010160009054906101000a900473ffffffffffffffffffffffffffffffffffffffff1673ffffffffffffffffffffffffffffffffffffffff16141515156108ea57600080fd5b3373ffffffffffffffffffffffffffffffffffffffff1660016000866000191660001916815260200190815260200160002060010160009054906101000a900473ffffffffffffffffffffffffffffffffffffffff1673ffffffffffffffffffffffffffffffffffffffff1614806109ae57503373ffffffffffffffffffffffffffffffffffffffff166000809054906101000a900473ffffffffffffffffffffffffffffffffffffffff1673ffffffffffffffffffffffffffffffffffffffff16145b15156109b957600080fd5b60016000856000191660001916815260200190815260200160002060000154915060026001600280549050038154811015156109f157fe5b9060005260206000209001549050816001600083600019166000191681526020019081526020016000206000018190555080600283815481101515610a3257fe5b906000526020600020900181600019169055506002805480919060019003610a5a9190610d79565b506001600085600019166000191681526020019081526020016000206000808201600090556001820160006101000a81549073ffffffffffffffffffffffffffffffffffffffff021916905560028201600090556003820160006101000a81549060ff0219169055600482016000610ad29190610da5565b60058201600090555050600192505050919050565b60008073ffffffffffffffffffffffffffffffffffffffff1660016000866000191660001916815260200190815260200160002060010160009054906101000a900473ffffffffffffffffffffffffffffffffffffffff1673ffffffffffffffffffffffffffffffffffffffff1614151515610b6257600080fd5b3373ffffffffffffffffffffffffffffffffffffffff1660016000866000191660001916815260200190815260200160002060010160009054906101000a900473ffffffffffffffffffffffffffffffffffffffff1673ffffffffffffffffffffffffffffffffffffffff161480610c2657503373ffffffffffffffffffffffffffffffffffffffff166000809054906101000a900473ffffffffffffffffffffffffffffffffffffffff1673ffffffffffffffffffffffffffffffffffffffff16145b1515610c3157600080fd5b4260016000866000191660001916815260200190815260200160002060020181905550826001600086600019166000191681526020019081526020016000206004019080519060200190610c86929190610cf9565b50816001600086600019166000191681526020019081526020016000206005018160001916905550600190509392505050565b602060405190810160405280600081525090565b815481835581811511610cf457818360005260206000209182019101610cf39190610ded565b5b505050565b828054600181600116156101000203166002900490600052602060002090601f016020900481019282601f10610d3a57805160ff1916838001178555610d68565b82800160010185558215610d68579182015b82811115610d67578251825591602001919060010190610d4c565b5b509050610d759190610e12565b5090565b815481835581811511610da057818360005260206000209182019101610d9f9190610ded565b5b505050565b50805460018160011615610100020316600290046000825580601f10610dcb5750610dea565b601f016020900490600052602060002090810190610de99190610e12565b5b50565b610e0f91905b80821115610e0b576000816000905550600101610df3565b5090565b90565b610e3491905b80821115610e30576000816000905550600101610e18565b5090565b905600a165627a7a72305820e2ff0fdd3d8f9d5193a89a90d065658db9f2a720e43bc1b5a5023e9b239b92730029",
  "source": "pragma solidity ^0.4.4;\n\n\ncontract ItemContract {\n\n  address   contractOwner;\n\n  struct Item {\n    //internal fields\n    uint      index;\n    address   owner;\n    uint      lastUpdated;\n    bool initialized;\n    //generated fields  \n    string   name;\n    bytes32 location;\n    // uint lengthInHours;\n    // uint price;\n    // bytes3 currencyTicker;\n\n  }\n\n  mapping(bytes32 => Item)  itemMap;\n  bytes32[]   itemArray;\n\n  function ItemContract() public {\n    contractOwner = msg.sender;\n  }\n\n  // Creates Item\n  function createItem(bytes32 id, \n        //generated fields\n        string name, bytes32 location) \n        public returns (bool) {\n    \n    //item already exists\n     require (itemMap[id].owner == address(0));\n  \n    //create new item\n    //internal fields\n    itemMap[id].index = itemArray.length;\n    itemArray.push(id);\n    itemMap[id].owner = msg.sender;\n    itemMap[id].lastUpdated = now;\n    //generated fields\n    itemMap[id].name = name; \n    itemMap[id].location = location;\n    return true;\n  }\n\n  // Returns an Item by name\n  function  readItem(bytes32 id) constant public returns (address,uint,\n      //generated fields\n      string, bytes32) {\n    return (itemMap[id].owner, itemMap[id].lastUpdated, \n      //generated fields\n            itemMap[id].name, itemMap[id].location);\n  }\n\n  // Returns an Item by name\n  function  readItemByIndex(uint index) constant public returns (address,uint,\n      //generated fields\n        string, bytes32) {\n    require(index < itemArray.length);\n    bytes32 id = itemArray[index];\n    return (itemMap[id].owner, itemMap[id].lastUpdated, \n      //generated fields\n            itemMap[id].name, itemMap[id].location);\n  }\n // Updates Item \n  function updateItem(bytes32 id, \n        //generated fields\n        string name,\n        bytes32 location) \n        public  returns (bool) {\n    //item should exist\n    require (itemMap[id].owner != address(0));\n    require (itemMap[id].owner == msg.sender || contractOwner == msg.sender); //only item owner or contract owner can update   \n\n    itemMap[id].lastUpdated = now;\n    //generated fields\n    itemMap[id].name = name;\n    itemMap[id].location = location;\n    return true;\n  }\n  \n  // Deletes Item\n  function deleteItem  (bytes32 id) public  returns (bool) {\n    // if(bytes(itemMap[id].name).length != 0) return false; //TODO  get rid of names as generated field\n    //item should  exist\n    require (itemMap[id].owner != address(0));\n    require (itemMap[id].owner == msg.sender || contractOwner == msg.sender); //only item owner or contract owner can update   \n\n    var i = itemMap[id].index;\n    var lastItem = itemArray[itemArray.length-1];\n    itemMap[lastItem].index = i;\n    itemArray[i] = lastItem;\n    itemArray.length--;\n   \n    delete(itemMap[id]);\n    return true;\n  }\n\n  // Returns itemCount\n  function  countItem() constant public returns (uint) {\n    return itemArray.length;\n  }\n\n\n  event ItemCreated(address indexed _address, bytes32 _item);\n  event ItemUpdated(address indexed _address, uint _id);\n  event ItemDeleted(address indexed _address, uint _id);\n\n}",
  "sourcePath": "C:\\ForteBackup\\Blockchain\\Development\\udemy\\acloudfan\\contracts\\app-generator-vue\\contracts\\ItemContract.sol",
  "compiler": {
    "name": "solc",
    "version": "0.4.19+commit.c4cbbb05.Emscripten.clang"
  },
  "schemaVersion": "2.0.0",
  "updatedAt": "2018-04-21T10:55:35.670Z"
}